:020000040800F2
:1000000088350020C1020008153E0008313C000878
:10001000113E00084131000877540008000000003C
:10002000000000000000000000000000DF430008A6
:100030005134000800000000C73E0008114B0008C2
:10004000DB020008DB020008DB020008DB0200081C
:10005000DB020008DB020008DB020008DB0200080C
:10006000DB02000835370008DB02000861310008B8
:10007000DB020008DB020008DB020008DB020008EC
:10008000DB020008F5330008DB020008DB02000891
:10009000DB020008DB020008DB020008DB020008CC
:1000A000DB020008DB020008DB020008DB020008BC
:1000B000DB020008DB020008DB020008DB020008AC
:1000C000DB020008DB020008DB020008DB0200089C
:1000D000DB020008DB02000829520008DB020008EE
:1000E000DB020008DB020008DB020008DB0200087C
:1000F000DB020008DB020008DB020008DB0200086C
:10010000DB020008DB020008DB020008DB0200085B
:10011000C9510008DB020008AD4D0008DB020008F1
:10012000DB020008DB020008DB020008DB0200083B
:1001300000F002F800F0B4F80AA090E8000C824445
:100140008344AAF10107DA4501D100F0A9F8AFF222
:10015000090EBAE80F0013F0010F18BFFB1A43F0A5
:1001600001031847C8740000E87400000A444FF007
:10017000000C10F8013B13F0070408BF10F8014B06
:100180001D1108BF10F8015B641E05D010F8016B4B
:10019000641E01F8016BF9D113F0080F1EBF10F8AF
:1001A000014BAD1C0C1B09D16D1E58BF01F801CBD2
:1001B000FAD505E014F8016B01F8016B6D1EF9D555
:1001C0009142D6D37047000000230024002500266A
:1001D000103A28BF78C1FBD8520728BF30C148BFAA
:1001E0000B6070476E2900F0FF82702900F0418497
:1001F000662907F0D780652907F0D480672907F0C2
:10020000D180612907F0D08003681B0A28BF41F024
:100210008001692900F0AC82642900F0A982752967
:1002200000F0A6826F2900F0CE83782900F00D84BB
:10023000E92900F06983E42900F06683F52900F0DC
:100240006383EF2900F0CB83F82900F00C84036866
:10025000DB0928BF41F08001632901F0C7817329C0
:1002600001F0CC81E32901F0D781F32901F0DC8191
:10027000002070471FB59DE8030000F0D5F901F09C
:1002800093FA04000020002105F0CAFF401C6060C2
:100290000020002105F0AEFFE0601FBD10B510BDCD
:1002A00001F05DFA1146FFF7E5FF05F0BDFC01F036
:1002B000BBFD03B4FFF7F2FF03BC01F02BFE00000F
:1002C0000948804709480047FEE7FEE7FEE7FEE7EA
:1002D000FEE7FEE7FEE7FEE7FEE7FEE70448054926
:1002E000054A064B70470000294B00083101000801
:1002F0008829002088350020882D0020882D0020A6
:1003000070B5064600F070F9056806F10B0020F0A4
:100310000704B4429CBF002070BD2B466A68BAB186
:100320001068A04210D304F1080188423CBF506815
:10033000586007D35168101941601168091B0160AA
:1003400058601460101D70BD13465268002AE7D132
:100350002146284600F054F90028DED170BD70B562
:100360000446051F00F040F90068002C14BF4468E3
:1003700070BD002C18BFAC423CBF20466468F8D367
:1003800001680A18AA4218BF456003D12A680546C9
:100390001144016028684119A1421CBF6C6070BD06
:1003A0006168696021680844286070BD1CB50C460E
:1003B000064B7B4469460090204600F02EFA044626
:1003C0000020694600F03CFA20461CBD8B0400006A
:1003D00070B5064600F00CF90468054630460A225E
:1003E000002100F067FC2C6070BD30B505460B465F
:1003F0002A4613F8014B12F8010B08B1A042F8D0BD
:100400001CB1002802D06D1CF1E7284630BD40EA3F
:10041000010310B59B070FD1042A0DD310C808C9DA
:10042000121F9C42F8D020BA19BA884201D9012083
:1004300010BD4FF0FF3010BD1AB1D30703D0521CCE
:1004400007E0002010BD10F8013B11F8014B1B1B09
:1004500007D110F8013B11F8014B1B1B01D1921E73
:10046000F1D1184610BD10B5431C02E010F8011B75
:1004700071B18107FAD14FF0013202C88C1A8C4356
:1004800014EAC211F9D0C01A0A0603D0C01E10BD6A
:10049000C01A10BD0A0401D0801E10BD0902FCD094
:1004A000401E10BD032A40F2308010F0030C00F013
:1004B000158011F8013BBCF1020F624498BF11F89E
:1004C00001CB00F8013B38BF11F8013BA2F1040257
:1004D00098BF00F801CB38BF00F8013B11F00303CF
:1004E00000F02580083AC0F0088051F8043B083A33
:1004F00051F804CBA0E80810F5E7121D5CBF51F8D5
:10050000043B40F8043BAFF30080D20724BF11F84E
:10051000013B11F801CB48BF11F8012B24BF00F8B3
:10052000013B00F801CB48BF00F8012B704710B524
:10053000203AC0F00B80B1E81850203AA0E81850DB
:10054000B1E81850A0E81850BFF4F5AF5FEA027C9C
:1005500024BFB1E81850A0E8185044BF18C918C00B
:10056000BDE810405FEA827C24BF51F8043B40F8AC
:10057000043B08BF7047D20728BF31F8023B48BF91
:1005800011F8012B28BF20F8023B48BF00F8012BCF
:1005900070474FF0000200B5134694469646203946
:1005A00022BFA0E80C50A0E80C50B1F12001BFF42C
:1005B000F7AF090728BFA0E80C5048BF0CC05DF892
:1005C00004EB890028BF40F8042B08BF704748BFE0
:1005D00020F8022B11F0804F18BF00F8012B704754
:1005E000704770477047000000487047302900206E
:1005F00000487047282900207047704770477047AF
:1006000038B504460A4600206946AFF3008000284A
:1006100008BF38BD02460099204600F08FFB01203C
:1006200038BD012001F093B8F8B5AFF3008005465E
:1006300000200C46102000BF0646A819A0420DD984
:10064000324669460020AFF30080070008BF01F082
:100650007EF80098A04218BF0546C419FFF7C4FFF2
:1006600005600746F01D20F007004619284600F0F7
:100670000AF8B44208BFF8BDA21B31463868BDE88D
:10068000F84000F05BBB00210160C0E90110704739
:100690001020704710B5FFF7ABFF006810BD10B514
:1006A0000446FFF7A5FF046010BD70B504468569D8
:1006B0000068C10601D5302600E02026C00707D01B
:1006C00070BDD4E9012130469047206A401C206269
:1006D0006D1EF6D570BD70B5044685690078C007FB
:1006E00007D170BDD4E9012120209047206A401C29
:1006F00020626D1EF6D570BD09684A0501D540B26D
:100700007047C905FCD500B2704709684A0501D594
:10071000C0B27047C905FCD580B2704770B50C46B1
:100720000546012A05D02878800600D5EA6900230D
:1007300002E0012305E05B1C934202D2E05C00284A
:10074000F9D1A869E618C01AA861286A1844286275
:100750002846FFF7AAFF04E0D5E9012114F8010BB0
:100760009047B442F8D32846FFF7B5FF70BD0000AC
:100770002DE9F0410646002410687529314616A57A
:1007800010D0FFF7B9FF002802DA404213A507E0B6
:1007900031688A0701D512A502E0490704D511A5E1
:1007A000012401E0FFF7B1FF00210A2206F124072E
:1007B00009E0B0FBF2FCB0FBF2F302FB1C003030AE
:1007C00078541846491C0028F3D123462A4630465F
:1007D000BDE8F04100F01ABB000000002D00000051
:1007E0002B0000002000000011680268006A530519
:1007F00001D508700AE0D30501D5088006E013068C
:1008000003D5C217C1E9000200E00860012070476B
:1008100001694A1C02610878704700B58FB0CDE9C4
:1008200001310021059105497944CDE903101146B4
:10083000684600F029F90FB000BD0000E5FFFFFF9A
:100840000A6802F8010B0A60704700002DE9FF5F9B
:1008500015468A460446DFF8AC80F8440027D8E9FC
:1008600000103E46CDE9001010E03AF816106A4636
:1008700002A800F04CFF411C07D02178890603D55F
:10088000E269391891420DD80744761C2078800619
:1008900002D5E069B84205DDAE42E6DB3AF8160063
:1008A0000028E2D1A069C01BA0612046FFF7FDFE31
:1008B000D8E90010CDE90010002017E03AF8181030
:1008C0006A4602A800F023FFB0F1FF3F81460BD03B
:1008D00000250DF1080B05E0D4E901211BF8050006
:1008E00090476D1C4D45F7D308F10100B04280469A
:1008F000E4DB206A384420622046FFF7ECFEBDE8C6
:10090000FF9F0000D26C00002DE9F0418046D21D0F
:1009100022F007020025D2E90002F52915A614D01D
:10092000011E72F1000106DA0023D0EB030063EB35
:10093000020211A608E0D8F800108B0701D50FA617
:1009400002E0490701D50EA601251146002408F151
:10095000240704E000F00CFA30323A55641C50EAE7
:100960000102F7D12B46324621464046BDE8F04110
:1009700000F04CBA000000002D0000002B00000029
:100980002000000030B4002100F1240408E002F04F
:100990000705D208303542EA4372DB086554491C2A
:1009A00052EA0305F3D10468002310A2250707D5F6
:1009B000A40600D421B1C46901230DA2641EC46140
:1009C00030BC00F023BA10B5044621461068FFF78A
:1009D0009CFE02462046BDE810400023D2E7D21D0F
:1009E00022F00701D1E90023CCE70000000000005D
:1009F00030000000F0B40D460188090502D5214CF5
:100A00007C4402E01F4C7C440E34002100F124069B
:100A100008E002F00F071209E75D42EA03721B09C2
:100A20007754491C52EA0307F3D1027800231207D6
:100A300004D5702D06D009B1022311342246F0BC32
:100A400000F0E4B901231034F8E770B504460D4610
:100A500021461068FFF759FE024629462046BDE8A8
:100A600070400023C6E7D21D22F00703D3E900231C
:100A7000C0E70368126843F0200303600823C361E2
:100A80000023B7E7346B00002DE9F05F8946044688
:100A90004FF0000ADFF874B1FB44C0F820A02046F4
:100AA000E1688847002874D0252806D0D4E90121C0
:100AB0009047206A401C2062F1E700265F462046EE
:100AC000E16888472028054607DB312D05D27819D3
:100AD00010F8200C08B10643F1E7B00701D526F065
:100AE0000406C4F81CA00027C4F818A02A2D09D0B9
:100AF000284604F056FD38B304EB8708303DC8F8AB
:100B0000185019E059F8041B204604EB8702916144
:100B1000E1688847012F054618D1E069002820DAEE
:100B200026F020061DE0D8F8180000EB800005EB49
:100B300040003038C8F818002046E168884705466C
:100B400004F02FFD0028EED1012F0AD02E2D08D160
:100B50002046E16888477F1C0546022F46F02006A4
:100B6000C4DBA069002803DA404246F00106A06118
:100B7000F00701D026F010066C2D0BD0682D09D09F
:100B80004C2D39D06A2D35D0742D35D07A2D33D0F7
:100B900016E038E0E1682F4620468847B84205460F
:100BA00009D16C2F26D04FF48060E16806432046BF
:100BB0008847054604E06C2F1AD04FF48070064336
:100BC0000DB3A5F14100192802D8203546F400667E
:100BD0004A462946204626604E46FFF703FB80B171
:100BE00001280BD0F61D26F0070000F1080956E792
:100BF0004020E4E78020D8E70020D6E706F104098A
:100C00004DE7284652E7206ABDE8F09FC46A00001D
:100C10000FB4002300B589B00CA900910B99CB60EB
:100C2000214B7B440693214B7B44079304236FF0B5
:100C30000042CDE901321E4A7A446B4608920246D0
:100C4000002006F013FC09B05DF814FB70B50646F1
:100C50004FF0FF3015460C46324686B00091CDE984
:100C6000010169460020049004A8FFF7D1FF024665
:100C70000498211825B108B1084600E020462860F4
:100C8000049800280DD0002A02DD0098884208D080
:100C90003246081B69460094CDE9010404A8FFF719
:100CA000B7FF06B070BD00000B0A0000230A000069
:100CB000BF0100002DE9F04791460F4680460446EB
:100CC000002614F8015B2DB100F030F80068405D9B
:100CD000C007F6D12B2D02D02D2D18D0641E4A4608
:100CE0003946204600F0C4FC27B13968A14201D141
:100CF000C7F800804FF0020471050BD54042002870
:100D000003DDFFF775FC0460A007BDE8F08746F43B
:100D10008066E4E70028F8DAFFF76AFC04606FF009
:100D20000040F2E7004870472829002010B500F085
:100D30003BFD001D10BD00BFE954000003464068A4
:100D40008C46002818BF88423CBF03464068F8D351
:100D500018681844884207D00CF1030020F00700FF
:100D6000001D411A521A0146081D0A60FFF7F7BA22
:100D700030B5B0F10A024FEA900E71F100034EEA6D
:100D8000817EB0EB0E0061EB91014FEA101E4EEA3E
:100D9000017E10EB0E0041EB11114FEA102E4EEACE
:100DA000016E10EB0E0041EB11214FEA104E4EEA9E
:100DB000014E10EB0E0041EB1141401841F10001D2
:100DC0004FEAD00040EA41704FEAD10110EB8005B4
:100DD0004FEA810444EA907444EB01046D1944EB3A
:100DE0000404521BA3414FF0000348BF0A3200D550
:100DF00030BD401C41F1000130BD10B50446FFF785
:100E000095FF0068005D00F0010010BD2DE9F0477E
:100E10000D4699469246044600F12408016888066A
:100E200004D5E06921F01001216000E00120A84212
:100E300001DD471B00E00027A1697A1902EB0900D8
:100E4000081AA0612078C00602D42046FFF72DFCC6
:100E5000002608E0D4E901211AF806009047206A2C
:100E6000401C761C20624E45F4DB2078C0060AD573
:100E70002046FFF71AFC06E0D4E901213020904714
:100E8000206A401C2062381EA7F10107F4DC07E04D
:100E9000D4E9012118F805009047206A401C20621F
:100EA000281EA5F10105F3DC2046FFF714FC20788D
:100EB000000602D50220BDE8F0870120FBE770475D
:100EC0002DE9FF4F0C461E464FF0FF378BB0D2E99D
:100ED0000001DDF860800A908A46C1F30A5505B921
:100EE0003D46002108464FF00000BAF1000F00F423
:100EF000400005DA00EB80004FF4400101EA5000A9
:100F00004FEA9059B9F1010F00DDB9460A9850EA4D
:100F10004A000ED044F61050A5F2FF3545432F1479
:100F2000B8F1000F1ED07542291E1EDDC9F1000266
:100F30001CE0B8F1010F4FF0000001D0302103E0B8
:100F4000F24305E02154401CB042FBDB3046002256
:100F5000002121540B99C1F80880C1E900200FB08D
:100F6000BDE8F08FBD1B6D1CDEE74A4600DA694222
:100F700006A800F0E7FE06AB93E8070003AB83E8A2
:100F8000070050460A9901F028FA8DE80700A0F5FD
:100F900000501F3800900398002D0ADD42F21F0117
:100FA0004A460844002303A90390684601F0D4FC94
:100FB00009E0A0F500504A461F38002303A903901A
:100FC000684601F0F3FC8DE807000004000C03D034
:100FD0004FF0FF30410800E01046B8F1000F03D099
:100FE0000022009215461EE0751E05D4FFF7C0FED4
:100FF000303262556D1EF9D5B3460122084302D046
:1010000000227F1C04E02078302801D100227F1EBE
:10101000002A099784D01DE0112D07DAFFF7A8FEFA
:10102000303262556D1C50EA0102F5D1084302D0FE
:101030000098C8B10EE00021681E05E0235C625CE8
:1010400063542254401E491C8142F7DBAB46A81B67
:10105000401E0990002004F80B000B98099AC0F874
:101060000880C0E9002B7AE711264FF0000857E707
:101070002DE9F04F88460446D21D22F0070191B0B9
:10108000D1E90001CDE90A0104F0F7F902460B9815
:10109000C00F01D02D2007E02068810701D52B204B
:1010A00002E0202101EAC000032A099001D0072AAA
:1010B00005DB03464146204600F07AFB0BE1207831
:1010C000800601D5E06900E00620B8F1650F814691
:1010D00006D0B8F1660F18D0B8F1670F70D131E0C3
:1010E0000020B9F1110F009001DB112301E009F19B
:1010F00001030AAA01A90CA8FFF7E2FEDDE90C70C2
:10110000002609F10105834647E001204B46009087
:101110004FF000470AAA01A90CA8FFF7D1FEDDE9AC
:101120000DB00C995D46002610B909F101000D18AB
:10113000B9EB050003D4C0F1FF3609F10105A5EBB9
:1011400009002BE0B9F1010F01DA4FF0010900208D
:10115000B9F1110F0090484601DD112300E003466C
:101160000AAA01A90CA8FFF7ABFEDDE90C704D46F9
:1011700000268346207800070AD4AB4500DA5D4696
:1011800001A8012D04DD411911F8011C302907D0F7
:101190004F4502DA17F1040F04DA012082460FE00E
:1011A0006D1EEEE7002F02DCED1B3E4403E0781CD1
:1011B000A84200DD7D1CB81B00F1010A4FF000477A
:1011C0002078000703D4AA4501DB4FF0FF3A002145
:1011D000B7F1004F0DF143088DF8431024D00220E1
:1011E0002B23002F01DA7F422D230A21021EA0F1BA
:1011F000010000DC5FB197FBF1FC97FBF1F201FB12
:101200001C7C17460CF1300C08F801CDEEE7A8F174
:10121000010003702188090501D5452100E0652101
:10122000A0F1010800F8011C09980FA9A1EB08071B
:10123000FF1D00B10120411901EBEA70A16938449A
:10124000081A401EA0612078C00602D42046FFF78D
:101250002CFA099828B1D4E901219047206A401C52
:1012600020622078C00622D52046FFF71EFA1EE035
:10127000002E04DBB34502DD01A8805D00E03020D4
:10128000D4E901219047206A401C2062761CAAF113
:1012900001005FEA000A0AD100F086FAC06801681E
:1012A000405CD4E901219047206A401C2062281E3E
:1012B000A5F10105DCDC07E0D4E9012118F8010BF8
:1012C0009047206A401C2062381EA7F10107F3DC1A
:1012D0002046FFF700FA032011B041E62DE9F04F58
:1012E00004460D46D21D22F0070089B0D0E90097D0
:1012F0004846394604F0C1F80246F80F01D02D23C4
:1013000007E02068810701D52B2302E0202101EAB4
:10131000C0038DF820300BB1012000E00020032A2B
:10132000824601D0072A04DB2946204600F040FA15
:101330003FE12078800601D40D2500E0E569C7F380
:101340000A560D2D49DA00214FEA175B08464FF087
:101350000000002F00F4400007DA00EB80004FF49B
:10136000400100EBD07001EA60008115012901DD28
:101370004FF0FF3100224FEA850CBCF1180F06D365
:101380001346ACF118004FF08052C24003E04FF416
:10139000801323FA0CF30CF10C0CBCF1200F04D3D6
:1013A000ACF1200C09FA0CF001E007FA0CF000296E
:1013B0004FF0004801DD18B90FE00ED140450CD3C5
:1013C00019EB02095F4121B9404502D19F4329EA47
:1013D0000209BBEB175F00D0761C2088000502D500
:1013E0007B48784402E07A487844193808AA3023C8
:1013F00002F80A30037C0AF10101002E0AF1020A08
:1014000053546A4602DC4FF0300101E04FF03101E5
:101410004FF001088DF8001002D0A6F2FF3603E06D
:1014200059EA470100D06B4E002D02DC21780907F4
:1014300004D54FF002082E218DF80110C44600217A
:101440000BE0C7F303433F01C35C491C6D1E02F868
:101450000830052908F1010801DA002DF1DC00212E
:101460000CE000EB1973491C1B786D1E082902F86B
:1014700008304FEA091908F1010801DA002DF0DC03
:1014800021688B0602D516E0A8F10108E04505DDCC
:1014900002EB080313F8013C302BF5D0B8F1000F34
:1014A00009DD02EB080313F8013C2E2B03D10907D9
:1014B00001D4A8F10108002D05DD3E2102F8081035
:1014C0006D1E08F10108407C002E02F8080008F1AA
:1014D000010804DA2D20764202F8080002E02B20F1
:1014E00002F808000A214FF47A70864208F10108D8
:1014F0000BDB96FBF0F3303302F8083096FBF0F389
:1015000008F1010800FB136601E0642E0CDB642087
:1015100096FBF0F3303302F8083096FBF0F308F155
:10152000010800FB136601E00A2E06DB96FBF1F0D2
:10153000303002F8080008F1010896FBF1F001FBD9
:101540001060303002F80800A16908F1010808EBCA
:10155000050202EB0A00081AA0612078C00602D436
:101560002046FFF7A2F8216A08AE01EB0A002062CC
:1015700004E0D4E9012116F8010B9047BAF1010A01
:10158000F7D22078C00602D52046FFF78EF86E46C7
:1015900009E016F8010B3E280FD0D4E9012190474D
:1015A000206A401C2062B8F10108F2D22046FFF701
:1015B00092F809B00320BDE8F08F206A2844206229
:1015C00003E0D4E90121302090476D1EEBD3F8E70A
:1015D0009E61000002FCFFFF10B5436913B1AFF339
:1015E000008001E0FFF79AF8012010BD127800F1A9
:1015F00024010A7000224A700122EDE711684FF0C1
:10160000FF32E9E710B5436913B1AFF3008001E0A1
:10161000FFF71CF9012010BD128800F1240182841B
:101620000022C2840122EDE711684FF0FF32E9E7A2
:10163000426842B1016811F8013B23B1521EC0E972
:101640000012184670470121C160881E7047426829
:101650005AB1C368016843B983688B4205D0491EFB
:10166000521CC0E90012002070474FF0FF30704755
:101670002DE9F05F824615468B4600270AF10104EA
:10168000B9460078302801D09DB113E014F8010B61
:101690000127782803D0582801D045B10AE00DB1C0
:1016A000102D07D1002714F8010B102502E00825A2
:1016B00000E00A250026B0460EE005FB080005FB09
:1016C00006F101271FFA80F801EB1046B6F5803FBE
:1016D00000D3B94614F8010B294600F0A9F80028F8
:1016E000EBDABBF1000F05D00FB1641E00E05446E9
:1016F000CBF80040B9F1000F06D0FEF779FF0221C8
:101700000160C81EBDE8F09F48EA0640FAE770B5E0
:1017100016460C460546FFF709FB036893F80101DE
:10172000012806D0FF2C0FD8185D68B101202C705D
:1017300070BDD3F807013246214603F20713034474
:101740002846BDE8704018474FF0FF3070BD10B517
:1017500000F078FBBDE8104000F06FBB70477546A5
:10176000FFF7E0FAAE4605006946534620F0070051
:10177000854618B020B5FEF7B1FDBDE820404FF01A
:1017800000064FF000074FF000084FF0000B21F06B
:101790000701AC46ACE8C009ACE8C009ACE8C00938
:1017A000ACE8C0098D4670470048704748290020C2
:1017B0002DE9F0411F46044603260168072A01F47B
:1017C000006004DB08B116A505E016A503E008B12A
:1017D00015A500E015A521F010002060A069C01E2D
:1017E000A0610FB1401EA0612046FEF75EFF4FB121
:1017F000D4E9012138469047206A401C2062C01C71
:10180000206206E0206AFAE7D4E9012115F8010B0D
:101810009047761EF8D22046FEF75DFFBDE8F081C6
:101820004E414E006E616E00494E4600696E660084
:101830003A2800D2303820F02002412A01D3A2F108
:101840003700884201D34FF0FF3070472DE9FF4F3A
:1018500006468BB00878FF2806D0491C2D2805D0F5
:1018600000244FF0000908E000200CE00124F8E714
:1018700009EB8903491C00EB43090878FF28F7D1DD
:1018800014B1C9F100008146107800252C46AA4603
:1018900029462D2801D02B2804D1521C2D2813D0E5
:1018A000002082468B461078FF280FD04FF0000CA6
:1018B0000A21521CA5FB017804FB018105FB0C11D8
:1018C000C5194BEB0104EEE70120EAE700210846C9
:1018D0004FF00000BAF1000F02D000EB800040088A
:1018E000C0F38157012F01DD4FF0FF370E9955EA04
:1018F000040009EB01080BD04FF0020918F5FA7F3C
:1019000016DA4FEACA70002F706008DD012007E088
:101910004FEACA70C6E900B00FB0BDE8F08F0020F2
:101920003060FEF765FEC0F800901821084616E00A
:10193000B8F5FA7F18DD002F02DAF748784401E0A5
:10194000F6487844D0E90010C6E9001040EACA70B1
:101950007060FEF74DFEC0F80090142108460FB0ED
:10196000BDE8F04F05F01BBD002108464FF0000018
:10197000B8F10001099002DAC7F1000200E03A462E
:1019800001DAC8F1000106A800F0DCF906AB93E823
:10199000070003AB83E8070044F23E005BEA040162
:1019A0000090584604D144F21E012C465D46009139
:1019B000210C0904014306D10099240444EA15448A
:1019C0002D041039009104F07F41014306D10099A4
:1019D000240244EA15642D020839009104F0704194
:1019E000014306D10099240144EA15742D01091F11
:1019F000009104F04041014306D10099A40044EA5B
:101A00009574AD00891E009104F00041084304D193
:101A100000986D196441401E00904FF001033A4652
:101A20006846B8F1000FCDE9014503A902DD00F0D9
:101A3000D2FF01E000F0A5FFBAF1000F04460D4609
:101A400001D084F00044002108464FF000000999BD
:101A500040F2FF77484010F00C0F07D124F000400F
:101A6000284303D0C4F30A50B84212D1FEF7C0FD98
:101A7000C0F80090C4F30A50B8420AD1A84878448C
:101A8000D0E90010C6E9001004F00041084370607E
:101A900042E7C6E900543FE72DE9FF4F1F464FF0EC
:101AA000000A4FF0FF38454691B0D7E90146CDF81E
:101AB0003CA0FFF779FEC0680168405C1090B969EE
:101AC00012986D1C8847396A814688470028F6D1EC
:101AD000B9F1FF3F0AD0002E24F4D06411DDB9F132
:101AE0002B0F08D0B9F12D0F0BD102E0404615B0F5
:101AF00013E744F48064B96912986D1C8847761E18
:101B00008146600504A901D52D2000E02B20002E80
:101B100001F1010B0DF130088DF810003FDDB9F136
:101B2000690F08D0B9F1490F05D0B9F16E0F02D095
:101B3000B9F14E0F1CD13B4601A8009580E8500238
:101B4000DDE912126FF0020005F094FCC11CCED149
:101B50000EE0B96912986D1C884781461398761E6D
:101B600044F4007405600F98401C002E0F9016DDA1
:101B7000B9F1300FEDD0B9F1780F02D0B9F1580FAB
:101B80000DD10F9801280AD13B46CDE90054DDE97B
:101B90001212001F029605F06BFCC11CA7D1109910
:101BA00089453ED144F0800406E01399681CAAF1EF
:101BB000010A44F400740860B9696D1C1298761E1D
:101BC000884730288146F0D02BE01099894505D10F
:101BD000200603D4761E44F0800418E0484603F043
:101BE000E0FC08B3761E0DF123018B4544F400742C
:101BF00008D2A9F130000BF8010B200607D5AAF195
:101C0000010003E0200602D40AF101008246A0058B
:101C100002D51399681C0860B96912986D1C884731
:101C20008146002ED1DC53E0002E51DDB9F1650F65
:101C300002D0B9F1450F4BD1A00549D5B9696D1C4A
:101C40001298761E24F440748847002E81460CDDDD
:101C50002B2804D0B9F12D0F07D144F48074B96951
:101C600012986D1C8847761E8146E00501D52D210E
:101C700000E02B2108F8011BCDF8008021E0761E42
:101C80000DF13901884544F400740CD2A9F13000FB
:101C900010F0FF0088F8000002D10099884509D9AA
:101CA00008F1010806E0E00501D51E4801E042F216
:101CB0000F708246B96912986D1C88478146139847
:101CC0000560002E04DD484603F06BFC0028D6D1E9
:101CD000F96912988847FF2053468BF8000088F86E
:101CE000000000200A900B9004AA0CA90AA8FFF794
:101CF000ADFDA00502D46FF00100F8E614F0240F4A
:101D000012D0E0071CD13868DDE90A12031D3B60E0
:101D10000068C0E9001213E0145D0000065D0000D9
:101D2000CA5B0000F1D8FFFF0AA9684603F0C8FBB0
:101D3000E00705D13868009A011D3960006802602B
:101D40002846D4E62DE9F047814616468AB0354844
:101D500078440DC88DE80D0032487844801C03ACEF
:101D60000DC884E80D0041F69B300844372190FBF4
:101D7000F1F290FBF1F5A5F1800501FB12041B3C8B
:101D800002D56442012000E00020DFF898A08046E0
:101D90000027FA44AAF1BE0A0EE0E0070AD0324654
:101DA000684607EB470101230AEB810100F0FEFDC5
:101DB0008DE8070064107F1C002CEED1194F7F4482
:101DC000AE3F19E0E80715D007EB04100DF1180A33
:101DD00090E80E008AE80E00C068F04201D1981920
:101DE00008903246012306A903A800F0DFFD03ABEB
:101DF00083E807006D10641C002DE3D14FF0010350
:101E000032466946B8F1000F03A802D000F0A4FDE5
:101E100001E000F0CBFDC9E90001C9F808200AB0D3
:101E2000BDE8F087C058000010B50446AFF300804D
:101E30002046BDE81040FEF73CBA002801D000F073
:101E400069B8704710B5012805D0002103A000F043
:101E500067F8012010BD09A1F8E700005349475277
:101E6000544D454D3A204F7574206F66206865616A
:101E700070206D656D6F7279000000003A20486532
:101E80006170206D656D6F727920636F727275700D
:101E9000746564004FF0013C50F8042B51F8043B8A
:101EA0009A4221D1A2EB0C03934313EACC1317D12E
:101EB00050F8042B51F8043B9A4215D1A2EB0C03C5
:101EC000934313EACC130BD150F8042B51F8043B85
:101ED0009A4209D1A2EB0C03934313EACC13DBD053
:101EE0004FF00000704700BFD01A01BAB1FA81F17B
:101EF00001F0180122FA01F0CB40C1F12001DBB260
:101F0000C0B2C01A2CFA01F3D11A914311EAC311DD
:101F1000E6D1704701491820ABBEFEE7260002005B
:101F200070B505460C460A2000E06D1C00F011F863
:101F300035B128780028F8D102E0641C00F009F8D7
:101F400014B120780028F8D1BDE870400A20AFF322
:101F5000008008B569468DF800000320ABBE08BDBF
:101F60002DE9FF4F1F464FF03C0987B04FF000426C
:101F7000DDE9141001F10108DDF858A002EA405033
:101F80000390002005908346054604460490B969F5
:101F9000461E08988847AAF1010A0290BAF1000F7C
:101FA0003BDD02982E2815D01021FFF741FC0028B8
:101FB0002EDB4FF0010B0599014317D0B9F1000F4B
:101FC0000BDB4A46C11700F0F5F905430C43A9F1B4
:101FD000040905E0012004900BE008B145F001057B
:101FE00001200590049820B9361D02E0049800B144
:101FF000361FB969089808F101088847BBF1000F3E
:10200000AAF1010A0290C9D00999C1F80080C5E778
:102010000298702808D0502806D0F9690898884797
:10202000BBF1000F14D04FE0002002900120BBF163
:10203000000F049009D0B969089808F10108884791
:10204000AAF10109B9F1000F07DCF969089888477E
:102050006FF001000BB0BDE8F08F2B2804D02D28C5
:102060000CD14FF0FF300490B969089808F10108CD
:102070008847A9F10109B9F1000FE6DD411CE4D060
:102080000A21FFF7D5FB0028DFDB029908F10108E0
:1020900001EB810100EB41000290B9690898884783
:1020A0000A21FFF7C5FB099AA9F10109B9F1000F4F
:1020B000C2F8008001DD0028E7DAF969089888474E
:1020C0000499029800FB016655EA040004D004F06C
:1020D0004041090002D006E0039898E0A40044EAD9
:1020E0009574AD00B61E04F00041080002D16D19D0
:1020F0006441761E159810F0240F03D04FF00B09A1
:102100005C4803E04FF028096FF07D008246564599
:1021100007DAAAEB06018944B9F1410F01DD4FF05E
:10212000410901200021A9F1010200F043F9024612
:1021300028400B462140084301D0012100E0002146
:10214000501E029143F1FF3128402140084301D045
:10215000012000E000200299834651EA0B014FD094
:10216000002108464FF00000039900F4400039B107
:1021700000EB80004FF4400100EBD07001EA6000FA
:102180008015012802DD4FF0FF3000E013D0401C25
:1021900036D0029860B3BBF1000F0CD14A46012043
:1021A000002100F007F928402140084301D0012018
:1021B00000E00020E0B101204A46002100F0FAF8DA
:1021C000034640190A4661412D1A8C4111D3B9F1D9
:1021D000400F09DD159810F0240F02D0AAF1340643
:1021E00003E0AAF1170600E0761C00254FF000443A
:1021F00006E05B1E42F1FF3220EA030521EA0204F9
:10220000CAF10100B04206DA1B4903980843019065
:10221000002000900EE0039AC4F3D321E80A0A4399
:10222000164940EA44500A433146CDE90002684667
:1022300003F0ACF9159810F0240F0BD01598C007D7
:1022400015D13868DDE90012031D3B600068C0E964
:1022500000120CE002A8694603F032F91598C00795
:1022600005D13868029A011D396000680260404655
:10227000F0E6000002FCFFFF0000F07F0000F03FEE
:102280002DE9FF4F92461D4685B04FF00041DDE934
:10229000124BDDE914727F1E01EA4B50414940F0B8
:1022A000FF4940EA0108002122F02000492804915A
:1022B00002D04E2828D04CE03BA0012607C88DE86C
:1022C0000700A9690698641C88477F1E014606D44A
:1022D0001DF8060018B121F0200181420BD0E969F8
:1022E00006988847032E34D0082E32D06FF00100B4
:1022F00009B0BDE8F08F761C032E01D0082EE0D186
:10230000601CCAF80000DCE7A9690698641C8847CD
:102310007F1E2AD420F02000412826D1A9690698E2
:10232000641C88477F1E20D420F020004E281CD13A
:10233000A9690698641C88477F1E48F4002849F460
:102340008009CAF8004001D4282806D0E969069817
:1023500088475FEACB7012D022E0A9690698641C16
:1023600088477F1E01D4002803DAE9690698884768
:10237000BCE72928F1D1641CCAF80040E9E71BF04A
:10238000240F07D028680499031D2B600068C0E95A
:10239000001805E02868021D2A600068C0F8009057
:1023A0002046A5E70000F07F494E46494E49545962
:1023B00000000000B2F120030AD5C2F1200301FAA7
:1023C00002F120FA03F300FA02F041EA0301704738
:1023D00000FA03F14FF0000070475FEA400C08BFBD
:1023E00091F0000F4FEA8C234FEAC12243EA51518A
:1023F0004FEA1C5018BF00F5F0404FEA300018BFFC
:1024000041F000415FEA6C5C00F02980BCF1FF3FC5
:1024100008BF40F080407047130C06BF12044FF015
:10242000100C4FF0000C130E04BF12020CF1080C3C
:10243000130F04BF12010CF1040C930F04BF9200A0
:102440000CF1020CD30F04BF52000CF1010C114629
:102450004FF00002A0F11F00A0EB0C00704711F03C
:10246000004F08BF704731F000413FF4D5AF0B0C6F
:1024700006BF09044FF0100C4FF0000C0B0E04BF08
:1024800009020CF1080C0B0F04BF09010CF1040C3C
:102490008B0F04BF89000CF1020CCB0F04BF490065
:1024A0000CF1010CCCF12003A0EB0C0022FA03F399
:1024B00002FA0CF241EA030100F10100704720F03A
:1024C0007F4C80EA030023F07F47ACEB070303F562
:1024D0007C5300F0004003F1FF032DE980494FEAEF
:1024E000154B09B44FEA144325EA0B4E24EA03487E
:1024F0000FF2042606EB132749083E785FEA320202
:1025000003FB0667C7F5000707FB06F64FEA5437DB
:102510004FEAD64606F1020607FB066CCCF1005CDA
:102520004FEA1C472CEA074C07FB06F40CFB06F5A8
:1025300004EB15464FEA961634BF00204FF00040DA
:102540004FEAD13706FB07FC4FEA1C4C0CFB0BF79C
:10255000D21B03FB0CF761EB07010CFB0EF7B0EB92
:10256000074072EB17420CFB08F734BFA2EB07429F
:10257000B2EB074261EB17414FEA0C444FEA910777
:1025800006FB07FC4FEA1C4C0CFB0BF7B0EBC740FB
:1025900072EB573203FB0CF734BFA2EBC742B2EB2E
:1025A000C74261EB57310CFB0EF7B0EBC70072EB83
:1025B00057720CFB08F734BFA2EBC702B2EBC7029D
:1025C00061EB5771039F4FEA816141EA921104EB7D
:1025D000CC044FEAD1374FEA826206FB07FC42EA9D
:1025E00090124FEA80604FEA1C4C0CFB0BF7D21B99
:1025F00003FB0CF761EB07010CFB0EF7B0EB074098
:1026000072EB17420CFB08F734BFA2EB0742B2EBA8
:10261000074261EB17414FEA8C554FEA910704EBF3
:102620009C2406FB07FC4FEA1C4C0CFB0BF7B0EBA1
:10263000C74072EB573203FB0CF734BFA2EBC74223
:10264000B2EBC74261EB57310CFB0EF7B0EBC700A2
:1026500072EB57720CFB08F734BFA2EBC702B2EB68
:10266000C70261EB577115EB4C254FEA816141EAD6
:1026700092114FEA82624FEAD13742EA901206FB8A
:1026800007FC44F100044FEA80604FEA1C4C0CFB4D
:102690000BF7D21B03FB0CF761EB07010CFB0EF7EA
:1026A000B0EB074072EB17420CFB08F734BFA2EB0C
:1026B0000742B2EB074261EB174115EB1C154FEADD
:1026C000813141EA92414FEA823242EA90424FEA36
:1026D00080304FEA0C7644F1000448EA03434EEAA6
:1026E0000B484FF0000EB2EB080C71EB030724BF50
:1026F000624639464EEB0E0E4FF0000B0018524169
:1027000049414BEB0B0BB2EB080C71EB03077BF170
:10271000000B24BF624639464EEB0E0E4FF0000B05
:102720000018524149414BEB0B0BB2EB080C71EB1B
:1027300003077BF1000B24BF624639464EEB0E0EB9
:1027400051EA020718BF46F0010616EB0E7655F166
:10275000000254F1000103D5BDE88901BDE80088FD
:10276000BDE88901BDE80048B619524141EB0101BD
:10277000A3F10103704780807F7E7D7C7B7A79782E
:10278000777676757473727171706F6E6E6D6C6C36
:102790006B6A6A69686867666665646463636261D8
:1027A0006160605F5F5E5E5D5D5C5C5B5B5A5A5959
:1027B00059585857575656555555545453535252C5
:1027C0005251515050504F4F4F4E4E4D4D4D4C4C1D
:1027D0004C4B4B4B4A4A4A49494948484847474766
:1027E00047464646454545444444444343434342A3
:1027F000424242414141000046EA0646A3F5705379
:102800004FEA164646EA42564FEAD22242EA41527F
:1028100010B54FEAD121A3F1010300F02FF820F009
:10282000004000F1020C00F0004701EB005011469F
:10283000BCF5006F40EA070000D210BDBAF1000FEE
:102840000AD01CB503B44FF004004FF004014FF060
:1028500000000FBCBDE810404FF00001BBF1010FBC
:10286000B9BF04484FF0FF310348002140EA070098
:1028700010BD00BFFFFFEF7F0000F07F002B9C46E4
:1028800030D477002BD01CB54FEA370703B44FF094
:1028900010004FF01001BAF1000F06D0BCF1000F8C
:1028A000DCBF40F0080040F008014FF000000FBC12
:1028B000BDE810400BF1010BBBF1010F08BF5FEA4F
:1028C000170722BF12F1010211F101014FF000417F
:1028D00043F1000300F0004043EA00007047F9D3E1
:1028E0005708D0E746EA064613F1400F4FEA16466E
:1028F0001FDD13F1200FDFBF16430A4600212033EE
:102900005B42BED0C3F1200746EA064602FA07F74B
:102910004FEA164646EA0706C3F1200722FA03F2F9
:1029200001FA07F721FA03F14FF0000342EA070228
:10293000A7E746EA020646EA06464FEA164646EA90
:102940000106BCBF46EA0646360C4FF000034FF0C6
:1029500000024FF0000194E72DE9804C9A4693461F
:1029600070B491E8380007C831EA400C48BF34EA37
:10297000430C03D5FFF7A3FDFFF780FFF0BCBDE8D4
:10298000008C2DE9804C9A46934670B491E838004B
:1029900007C831EA400C48BF34EA430C03D5FFF7BF
:1029A0008EFDFFF729FFF0BCBDE8008C2DE9804CBF
:1029B0009A46934670B491E8380007C810F0804FEB
:1029C00008BF13F0804F03D100F01AF8FFF756FF4D
:1029D000F0BCBDE8008C2DE9804C9A46934670B45B
:1029E00091E8380007C810F0804F08BF13F0804FFF
:1029F00003D100F005F8FFF7FFFEF0BCBDE8008C46
:102A000020F07F4780EA030023F07F4C07EB0C03A4
:102A1000A3F57C5300F00040A3F1FE0392F0000FF9
:102A200000F0B38095F0000F00F077802DE90149A8
:102A30004FEA11404FEA144621EA004800FB06FC29
:102A400024EA064708FB06F607FB08F800FB07F731
:102A500018EB06484CEB164C4FEA124B18EB0748A4
:102A60004FEA15464CEB174022EA0B4E0BFB06FCD7
:102A700025EA06470EFB06F607FB0EFE0BFB07F7E3
:102A80001EEB064E4CEB164C4FF000061EEB074EAD
:102A90004CEB174B18EB0B0840F1000018EB0E0B3A
:102AA00058EB000840F100008F1A4FF000013CBFC6
:102AB000C943661B14BFB5EB040C00213CBFC943DE
:102AC000F61B4FEA17444EEA8E0E27EA04454FEAFA
:102AD0001C4704FB07622CEA074C05FB07F70CFBBD
:102AE00005F604FB0CFC16EB074642EB174216EB0F
:102AF0000C4642EB1C421BEB060658EB020241411E
:102B000046EA9E0601D5BDE80189B619524141EB5E
:102B10000101A3F10103BDE801894FEA14454FEA21
:102B2000114724EA054621EA074C05FB07F406FB9A
:102B300007F70CFB06F105FB0CFC11EB074144EB1E
:102B400017444FEA124711EB0C4144EB1C4422EAB4
:102B5000074C05FB07F206FB07F70CFB06F605FB27
:102B60000CFC16EB074642EB174216EB0C4642EB09
:102B70001C456A1854F1000148BF7047B61952410C
:102B800041EB0101A3F10103704795F0000F37D02D
:102B90004FEA11424FEA144721EA024624EA074C61
:102BA00002FB07F106FB07F70CFB06F402FB0CFC2B
:102BB00014EB074441EB17414FEA154714EB0C4463
:102BC00041EB1C4125EA074C02FB07F506FB07F722
:102BD0000CFB06F602FB0CFC16EB074645EB174513
:102BE00016EB0C4645EB1C42121951F1000148BF8F
:102BF0007047B619524141EB0101A3F1010370473F
:102C00004FEA14454FEA114724EA054621EA074CEA
:102C100005FB07F106FB07F70CFB06F24FF0000679
:102C200005FB0CFC12EB074241EB174112EB0C4287
:102C300051EB1C4148BF7047921841EB0101A3F1D1
:102C40000103704700B587B00121480201F078F90F
:102C50000121084601F044F94FF4004001F034F935
:102C60003C4800F095F87020ADF8180000208DF871
:102C70001B0002208DF81A0006A9374800F01EFE3E
:102C80000020019001208DF808008DF809004FF414
:102C9000602003900020049003208DF8140001A907
:102CA0002C4800F0B7F8072301220421294800F03E
:102CB000D9F8072302220521264800F0D3F807237C
:102CC00003220621234800F0CDF80121214800F01D
:102CD00054F801211F4800F045F81E4800F01EF985
:102CE00000BF1C4800F08CF80028FAD1194800F009
:102CF00025F900BF174800F079F80028FAD10B2019
:102D00008DF8000003208DF8010002208DF80200EC
:102D100001208DF80300684601F07EF80D484C3024
:102D20000E4908610E4848614FF4AD5088601E207E
:102D3000C8600846806840F00100886008468068E6
:102D400040F0020088600121024800F0ECF807B072
:102D500000BD0000002401400008014000000240C6
:102D60006408002021B1826842F00102826003E021
:102D7000826822F001028260704721B1826842F4C9
:102D80008072826003E0826822F480728260704701
:102D900010B504461248844208D10121401501F0C3
:102DA000DFF80021601501F0DBF817E00D488442E0
:102DB00008D10121001501F0D3F80021201501F000
:102DC000CFF80BE00848844208D10121C80301F084
:102DD000C7F800214FF4004001F0C2F810BD000018
:102DE0000024014000280140003C01400146002031
:102DF0008A6802F004020AB1012000E00020704756
:102E0000014600208A6802F008020AB1012000E0B1
:102E10000020704730B502460020002350680F4C58
:102E200020400D790C6844EA0524204350609068E6
:102E30000B4C2040D1E902542C434D7944EA45041F
:102E400020439060D06A20F470000C7C641EE4B2D1
:102E5000234340EA0350D06230BD0000FFFEF0FF84
:102E6000FDF7F1FFF0B504460D4600200021092DC5
:102E700011DDE068A5F10A0606EB4607072606FA0B
:102E800007F18843A5F10A0606EB460603FA06F1A8
:102E90000843E0600CE0206905EB4507072606FAC9
:102EA00007F1884305EB450603FA06F10843206164
:102EB000072A0FDA606B561E06EB86071F2606FAF6
:102EC00007F18843561E06EB860605FA06F108430D
:102ED000606322E00D2A0FDA206BD61F06EB86070F
:102EE0001F2606FA07F18843D61F06EB860605FA69
:102EF00006F10843206310E0E06AA2F10D0606EB3C
:102F000086071F2606FA07F18843A2F10D0606EB95
:102F1000860605FA06F10843E062F0BD816841F0DB
:102F200008018160704721B1826842F4A00282608A
:102F300003E0826822F4A00282607047816841F059
:102F400004018160704700002DE9F047584840793E
:102F500000287DD057A000F0DBFA002404E0E0B2A6
:102F6000002100F0EFF8641C052CF8DB4FF4FA7038
:102F700002F072FB00F066FE002413E0514850F8A6
:102F800024104B48383040F82410014651F82400F2
:102F900003F090FE07463A460B4621464AA000F051
:102FA000B7FA641C052CE9DB00242EE0E0B242F203
:102FB000283100F0C7F84FF4FA7002F04DFB00F032
:102FC00041FE4FF4FA7002F047FB00F03BFE4FF475
:102FD000FA7002F041FB00F035FE3A4850F8241038
:102FE0003348243040F82410014651F8240003F0FF
:102FF00061FE07463A460B4621463BA000F088FAA0
:10300000E0B2002100F09EF8641C052CCEDB002409
:1030100004E0E0B2002100F095F8641C052CF8DB18
:10302000002438E04FF42F75264850F824902FE004
:1030300000F008FEE0B2294602F01EFF642002F014
:103040000BFB204951F82400494604F033F900E015
:103050002BE0824603F02EFE07462B4A2B4B03F053
:1030600009FD13D2761CC82E12DDA5F10A0081B22B
:10307000274820F814100E48183020F8141030F8A3
:103080001420214623A000F043FA02E0681C85B218
:10309000CEE700BF641C052CC4DB01F0A1F90020C1
:1030A0000349487123A000F033FABDE8F08700001F
:1030B000EC04002043414C3E3E3E53746172740D5B
:1030C0000A0000001C0A002043414C3E3E3E206D99
:1030D000696E5F63757272656E745B25645D3D2514
:1030E000302E32660D0A000043414C3E3E3E206DBC
:1030F00061785F63757272656E745B25645D3D25F2
:10310000302E32660D0A00009A9999999999D93F03
:103110001400002043414C3E3E3E206375727265B0
:103120006E745F6D696E5F70776D5B25645D3D25C4
:10313000640D0A0043414C3E3E3E456E640D0A005C
:1031400000BFFEE770B504460D4600200349085550
:103150002946204602F090FE70BD0000EC040020DD
:103160002DE9F04F87B0002004900590069090481C
:10317000006800F0020000287ED0052416E04FF021
:1031800000090FE004EB440000EB090A04A850F822
:103190002900884931F81A10084404A941F8290087
:1031A00009F10109B9F1030FECDB641C0A2CE6DB21
:1031B00005210498B0FBF1F07F49804A127841F86C
:1031C000220005210598B0FBF1F07D497B4A127879
:1031D00041F8220005210698B0FBF1F07949774AC1
:1031E000127841F8220074487449097850F8210097
:1031F000B0F57A6F21D97249704A127851F82200DD
:1032000003F0EAFA074600226F4B03F00DF94FF086
:1032100066326E4BCDE9000103F02EFB05466C4A89
:103220006C4B03F001F9CDE9020103F00FF86A4994
:10323000624A127841F8220022E05F4A5F49097829
:1032400052F8210003F0C8FA074600225E4B03F053
:10325000EBF805464FF066325C4B03F00DFB5C4A21
:103260005E4BCDE9000103F0DFF8CDE9020102F089
:10327000EDFF5949514A00E096E0127841F82200EA
:1032800057494E4A127851F8220003F013FD0246C6
:103290000B46CDE900010020524903F0C5F8054670
:1032A0000E464D49454A127851F8220003F002FDBE
:1032B00007462A46334603F0DFFACDE9020102F061
:1032C000C5FF45493D4A127841F822003B4A127831
:1032D00051F8220003F0EEFC05463D4A424B03F054
:1032E0008FFA05D200203C49344A127841F8220076
:1032F0003E484079D0B93D4A383252F82410364A17
:1033000052F8240003F09AFF0CD2384A383252F8AF
:103310002410314A52F8240003F0CCFF2E4941F822
:10332000240003E000202C4941F8240023480078C1
:10333000401C224908700846007805282ADB002036
:103340000870002424E02A4A52F82410224A52F835
:10335000240003F0AFFF834603F0ACFC05461C4A93
:10336000214B03F089FA07468846214951F8240089
:1033700003F0A0FC3A464346CDE9000102F098FF75
:10338000CDE9020102F062FF194941F82400641CF2
:10339000052CD8DB0948007802F0F4FD04484068A9
:1033A00040F002000249486007B0BDE8F08F00001D
:1033B0000000024064080020080A002044000020A9
:1033C000F4090020E00900200000B04066660A40D1
:1033D0009A99999999193E401C0A002099195E40C2
:1033E0002400002000408F409999B93FEC04002050
:1033F000300A002010B51248006800F00070F0B1EB
:1034000010480168002002F007FD00200D49086007
:103410000B48406840F00070094948600848803017
:10342000006820F00100C1F8800000BF0648008855
:1034300000F040000028F9D000200449086010BDC9
:103440000000024048000020004400408401214266
:103450007047000000B587B00121C80400F050FD9E
:103460004FF48060ADF8180003208DF81A00182082
:103470008DF81B0006A9244800F020FA4FF40060E4
:10348000ADF8180004208DF81B0006A91E4800F0B6
:1034900015FA0121C80400F043FD00214FF400207B
:1034A00000F03EFD4FF4E13002900020ADF80C003A
:1034B0004FF40050ADF80E000020ADF81000ADF84C
:1034C00014000C20ADF8120002A9104801F062FFB0
:1034D00034208DF8040000208DF8050003208DF8BD
:1034E000060001208DF8070001A800F095FC0122DC
:1034F00040F22551054801F028FF0121034801F061
:10350000E1FE07B000BD000000100140004C00408B
:103510000FB438B53220FCF7F3FE044614B938BCBA
:103520005DF814FB05A800902046009A0499FCF76A
:103530003DFF002000902546284602F079F82046FD
:10354000FCF70DFF00BFEAE770B500F057FB064639
:1035500003F060FD05460C4903F046FC04460B48A9
:103560008169204603F0A6FE0849C861FFF7ECFC1C
:1035700000F044FB054603F04DFD0446024903F00C
:1035800033FC0249886170BD002474494C05002059
:103590007047000070B500F031FB054603F03AFDBE
:1035A00004460B4903F020FC0A49086200F026FBA0
:1035B000064603F02FFD0546054903F015FC0446B9
:1035C0000448016A204603F075FE0249486270BD56
:1035D000002474494C05002070B500F00FFB06462E
:1035E00003F018FD05460D4903F0FEFB04460C48A8
:1035F0008168204603F05EFE0949C86000F080FB48
:1036000002F070F900F0FAFA054603F003FD0446F3
:10361000024903F0E9FB0249886070BD0024744947
:103620004C05002070B500F0E9FA054603F0F2FC05
:1036300004460D4903F0D8FB0C49886201F0CEFF27
:1036400000F000FB00F0DAFA064603F0E3FC054662
:10365000054903F0C9FB04460448816A204603F08B
:1036600029FE0249C86270BD002474494C0500203F
:1036700070B500F0C3FA064603F0CCFC05460E49CF
:1036800003F0B2FB04460D480169204603F012FE28
:103690000A494861486902F07DFA02F0D1FC00F065
:1036A000ADFA054603F0B6FC0446034903F09CFB63
:1036B0000249086170BD0000002474494C050020D7
:1036C00010B51B480078012831D1FFF761FF184879
:1036D0008088022804DB002015498880FFF77CFFE2
:1036E0001348C088052804DB00201149C880FFF773
:1036F000BFFF0F4800890A2804DB00200C4908811D
:10370000FFF722FF0A484089142804DB00200849FB
:103710004881FFF73FFF06488089322804DB0020FC
:1037200003498881FFF77EFF00200149087010BD22
:103730003C05002010B52048006800F0080080B368
:103740001E480068C0EB00401D49898C08441D4993
:10375000086008460068582829D3084600681A49B6
:10376000884224D8194800F00EFD012018498871BC
:1037700000F044FA84B21748028817491748FCF74A
:1037800091FE00F03BFA001B1549088008460088AE
:10379000052802DD00200F49088000200D4908801F
:1037A00005E0FFE7002005490860054988840820F6
:1037B0000C49086010BD0000080801404C000020C2
:1037C000001000405000002040420F0090040020F4
:1037D000EC04002056040020550200205400002074
:1037E0006004002014040140002123498279002A4A
:1037F0003AD00A46126803689A430B461A600A1DBB
:10380000126803689A430B1D1A60027911440A6812
:1038100003681A430A60184A0832126803689A4318
:10382000154B08331A601A1D126803689A43124B2D
:103830000C331A604279102A0ED11A1F12680368DD
:103840001A430D4B08331A601A1D126803681A4395
:10385000094B0C331A600DE00749427911440A689C
:1038600003681A430A6005E0027911440A68036894
:103870009A430A60704700000004014030B50022FE
:103880008B071C0F0F2303FA04F20B4B8C1053F819
:1038900024309343084C8D1044F8253023468C1077
:1038A00053F824308C07240F00FA04F42343024C0D
:1038B0008D1044F8253030BD080001402DE9F0415D
:1038C000024600250026002000230024002791F84E
:1038D00003C00CF00F0591F803C00CF0100CBCF104
:1038E000000F03D091F802C04CEA050591F800C022
:1038F000BCF1000F31D0146800202BE04FF0010C18
:103900000CFA00F3B1F800C00CEA03069E4220D185
:1039100083004FF00F0C0CFA03F7BC4305FA03FCCD
:103920004CEA040491F803C0BCF1280F06D14FF013
:10393000010C0CFA00FCC2F814C00AE091F803C0B4
:10394000BCF1480F05D14FF0010C0CFA00FCC2F895
:1039500010C0401C0828D1D31460B1F800C0BCF1DD
:10396000FF0F34DD546800202EE000F1080C4FF00A
:10397000010808FA0CF3B1F800C00CEA03069E42F5
:1039800021D183004FF00F0C0CFA03F7BC4305FA6A
:1039900003FC4CEA040491F803C0BCF1280F05D1E4
:1039A00000F1080C08FA0CF8C2F8148091F803C072
:1039B000BCF1480F07D100F1080C4FF0010808FADC
:1039C0000CF8C2F81080401C0828CED35460BDE823
:1039D000F0810000F0B50A460023002400210025F4
:1039E00000F00046B6F1004F02D11D4EF16901E032
:1039F0001B4E7168C0F3034583B200F44016B6F560
:103A0000401F08D121F07061154E766826F070666F
:103A1000134F7E6012E000F48016B6F5801F06D1C9
:103A2000032606FA05F4A14341F0706106E0460D55
:103A3000360103FA06F6B14341F0706122B1460D3A
:103A4000360103FA06F6314300F00046B6F1004FA6
:103A500002D1034EF16101E0014E7160F0BD000042
:103A60000000014008B501213C2000F069FA012165
:103A7000084600F065FA01211848FFF7ABFF072060
:103A8000ADF8000010208DF8030003208DF802002F
:103A900069461348FFF712FF0120124908601249D6
:103AA000C1F888018020ADF8000010208DF80300D7
:103AB00003208DF8020069460C48FFF7FFFE4FF423
:103AC000E060ADF8000048208DF803006946084822
:103AD000FFF7F4FE00200749086008BD000230002F
:103AE000001001408001224200002242000C0140EF
:103AF000000801409C8121422DE9F04188B0054633
:103B00008846002700208DF80000CC208DF80C009E
:103B100001208DF80D00D5F80900CDF80F00B5F89B
:103B20000D00ADF8130033480168CDF815108088FA
:103B3000ADF81900E87B8DF81B00287C8DF81C007F
:103B400000208DF81D00ADF81E00B8F8020048BB3B
:103B50000020ADF8020004208DF804009DF8040058
:103B60001830C0B28DF80E009DF80E00861C30464D
:103B700000F01AF918B1012008B0BDE8F08141F257
:103B800034201C49C91FC881CD211A48C01F018299
:103B90009DF8042000F10E01174800681830FCF76A
:103BA00081FC00E000BF00BF142203A91248006896
:103BB000FCF778FC1048006800994161002405E09A
:103BC0000D480068005D384487B2641C9DF80E0003
:103BD000A042F5DC38120849096808550648026811
:103BE000601C175431460448006800F037FA002082
:103BF000C2E70000F3040020480000200B4A1168CF
:103C00004FF0E02252694FF0E0239B69D21A4FF443
:103C10007A735A434FF0E0235B69B2FBF3F201EB96
:103C20004103C3EBC11302EBC30070476C040020D7
:103C300000BFFEE74CF6CC40014908607047000029
:103C40000030004010B500F013F810BD70B5054607
:103C50000C4645F2555000F01FF8284600F010F8C9
:103C6000204600F013F800F003F8FFF7E3FF70BD03
:103C70004AF6AA2001490860704700000030004061
:103C800001494860704700000030004001498860E9
:103C90007047000000300040014908607047000094
:103CA000003000402DE9F05F83460E4691469A466B
:103CB000002531465846FCF798FB0446E4B13046EF
:103CC000FCF7D1FB044411E0204601F071FC0746EB
:103CD00002F0BCFA4AF8250008A12046FCF785FB53
:103CE000044614B16D1C641C00E001E04D45EBDBA3
:103CF00000BF0120BDE8F09F0020FBE72C00000082
:103D000010B50548407828B1044800F0E7F90020D4
:103D10000149487010BD00009004002055020020A9
:103D200010B53C2209490A4800F07CFA07481438CB
:103D3000C06C401C40B93C210448FCF72AFC3C22E2
:103D400004490248FCF7F3FB10BD00000005002009
:103D500000EC0708B00400201248C089401C11493B
:103D6000C88108468088401C88800846C088401C5E
:103D7000C88008460089401C088108464089401CCC
:103D8000488108468089401C8881084600780128BF
:103D900004D108464078401C487002E001200149E7
:103DA000087070473C05002010B504460C480068B8
:103DB00028B10C490CA0FFF7ABFB012010BD214638
:103DC000002002F03BF8064908600846006828B960
:103DD000044909A0FFF79CFB0120EFE70020EDE775
:103DE00048000020E87400083E3E3E25733A6C61AE
:103DF0007374200D0A0000003E3E3E25733A6D7933
:103E00006D616C6C6F63206572726F210D0A00002A
:103E100000BFFEE77047000070B5002100230F22AD
:103E2000C47804B3154C246804F4E064C4F5E06479
:103E3000210AC1F10403CA40447804FA03F18478EA
:103E40001440214309010E4C0678A155047804F072
:103E50001F050124AC4005786D11AD0005F1E0258A
:103E6000C5F8004109E0047804F01F050124AC40C6
:103E7000044D0678761145F8264070BD0CED00E043
:103E800000E400E080E100E002490143024A1160E1
:103E9000704700000000FA050CED00E081637047F8
:103EA00010B5012000F0BAFE012000F021FF00242F
:103EB00004E0E0B2002101F0DFFF641C072CF8DB16
:103EC00001F0D8FC10BD704701460020034A50683D
:103ED00020F440400843506070470000001002404A
:103EE00029B1064A52690243044B5A6104E0034A6D
:103EF00052698243014B5A61704700000010024032
:103F000029B1064AD2690243044BDA6104E0034A4C
:103F1000D2698243014BDA61704700000010024011
:103F200029B1064A12690243044B1A6104E0034AAC
:103F300012698243014B1A61704700000010024071
:103F400029B1064A92690243044B9A6104E0034A8C
:103F500092698243014B9A61704700000010024051
:103F600029B1064AD2680243044BDA6004E0034AEE
:103F7000D2688243014BDA607047000000100240B3
:103F800030B500210022002400232D4D6D6805F07E
:103F90000C0121B1042905D0082923D105E0294DC0
:103FA000056022E0284D05601FE0254D6D6805F491
:103FB0007012234D6D6805F48034022505EB9242A2
:103FC0001CB9224D554305600BE01D4D6D6805F48D
:103FD00000351DB11E4D5543056002E01A4D554395
:103FE000056002E0174D056000BF00BF144D6D680D
:103FF00005F0F0010909174D6B5C0568DD4045606F
:104000000F4D6D6805F4E061090A124D6B5C45685F
:10401000DD4085600A4D6D6805F46051C90A0D4D9B
:104020006B5C4568DD40C560054D6D6805F4404139
:10403000890B094D6B5CC568B5FBF3F5056130BDB7
:104040000010024000127A00001BB70000093D007A
:10405000808D5B0096040020A604002070B5044605
:104060000D460CB9012070BD012019490860C82017
:1040700001F0FEFA00BF174800680028FBD100BF1E
:104080001548008800F040000028F9D01148001FB2
:10409000006820F001000F498439C1F880000D4804
:1040A000083004609020C1F880000846C0F88450B1
:1040B000D0F8800040F00100C1F880000846D0F838
:1040C000800040F002000349091F08600020CAE791
:1040D0008401214284000240004400402DE9F04761
:1040E00004460027264604F11409002503E0605D1C
:1040F000384487B26D1CB078A842F8DC681C205C9C
:10410000615D40EA0128B84502D00120BDE8F08792
:1041100006220D49F01CFCF77AF908B10220F5E7F8
:1041200099F8000020B1012807D0022807D105E046
:1041300049463046FFF7E0FC03E002E001E00320DF
:10414000E4E700BF0020E1E7F30400204278CAB9A9
:10415000427922B90A78CC2A01D101220270027870
:1041600082B14279022A01D18A7802714279521CC5
:10417000427143790279921C934203DB012242701F
:104180000022027070470021417041714180182166
:10419000017100210170704770B50546002445F695
:1041A000FF7000F05FF80446C4B90D48006940F0A4
:1041B00002000B49086108464561006940F0400073
:1041C000086145F6FF7000F04DF80446012C05D05B
:1041D0000348006920F0020001490861204670BDD3
:1041E000002002400948C16801F0010008B1012027
:1041F000704701F0040008B10220F9E701F0100057
:1042000008B10320F4E70020F2E70000002002409C
:104210000348006940F080000149086170470000D0
:104220000020024030B503460C461546002207E048
:10423000184600F008F824F812009B1C501C82B2AB
:10424000AA42F5DB30BD01460888704702480349A1
:1042500048600348486070472301674500200240DA
:10426000AB89EFCD70B5044600BFFFF7BBFF054635
:10427000012D00D006E0012001F0FAF9601E84B2A1
:10428000002CF2D100BF04B9FF25284670BD000004
:104290002DE9F05F80468A461746B8F1006F02D3D9
:1042A0003348804501D3BDE8F09FFFF7CFFFA8F169
:1042B000006B4FEADB25CBF34909C9F58064A742BF
:1042C00000DC3C464EE04FF0006101EBC5204A1493
:1042D0002849FFF7A7FF00260BE009EB0600254958
:1042E00031F810004FF6FF71884200D003E0701CD7
:1042F00086B2A642F1DB00BFA6421BDA4FF0006196
:1043000001EBC520FFF748FF002608E03AF8160049
:1043100006EB0901174A22F81100701C86B2A6426A
:10432000F4DB4FF0006101EBC5204A14114900F0A5
:1043300043F804E022465146404600F03DF8A742CB
:1043400000D110E06D1C4FF000090AEB440A08EBA5
:104350004408381B87B2B7F5806F02DD4FF48064E4
:1043600000E03C46AFE700BFFFF752FF00BF9AE70F
:1043700000000808440A002070B505460E46FF20DC
:10438000FFF770FF044694B90A48006940F0010045
:10439000084908612E80FF20FFF764FF0446012CC6
:1043A00005D00448006920F0010002490861204658
:1043B00070BD0000002002402DE9F04105460E4688
:1043C0001746002407E036F814102846FFF7D4FFFC
:1043D000AD1C601C84B2BC42F5DBBDE8F0817047C7
:1043E00010B53C2202490348FFF752FF10BD000000
:1043F0000005002000EC07082DE9F04104460D46B9
:10440000052C34DA1B4901EB84102946FFF746FDE1
:10441000284602F04FFC0646174A184B02F0F0F906
:104420001CD80021204601F027FD04F10801C8B284
:10443000002101F021FD002011490855114931F8F2
:10444000140002F0E7FD0B4901EB8411C8630D482D
:1044500030F814000C4941F8240008E004F1080188
:10446000C8B2002101F008FD012005490855BDE84A
:10447000F0810000240700209A9999999999C93FE1
:10448000EC040020140000201007002070B5044642
:104490000D460020074908550DB9002605E00548DE
:1044A000183030F81400284486B23146204601F016
:1044B000E3FC70BDEC04002010B500F001F810BD65
:1044C0000CB50020019000903348006840F4803023
:1044D0003149086000BF3048006800F400300090A7
:1044E0000198401C0190009818B90198B0F5A06F90
:1044F000F1D12948006800F4003010B1012000908B
:1045000001E0002000900098012843D12348006872
:1045100040F01000214908600846006820F00300C0
:1045200008600846006840F0020008601A484068C9
:10453000194948600846406848600846406840F4A9
:10454000806048600846406820F47C104860084657
:10455000406840F4881048600846006840F0807069
:10456000086000BF0C48006800F000700028F9D017
:104570000948406820F00300074948600846406841
:1045800040F00200486000BF0348406800F00C00A3
:104590000828F9D10CBD00000010024000200240A4
:1045A00003B58BB00B98806B06900C9902F082FEDD
:1045B0000B9948630B98007830B1012856D0022837
:1045C0007ED003287DD110E10B98C06B04900B982E
:1045D00080680390049902F065FD05900B98006ACD
:1045E00001460490059802F05DFD06900B98406925
:1045F00001460590069802F089FB0B9948610B98DB
:10460000C06B04900B98C0680390049902F04AFDB7
:1046100005900B98406A01460490059802F042FD0F
:1046200006900B98806901460590069802F06EFB93
:104630000B9988610B98C06B04900B9800690390EC
:10464000049902F02FFD05900B98806A01460490B2
:10465000059802F027FD06900B98C0690146059069
:10466000069802F053FB0B99C86150E10B98C06BA0
:1046700004900B9880680390049902F013FD059054
:104680000B98406B01460490059802F00BFD0690D4
:104690000B98406901460590069802F037FB0B998C
:1046A00048610B98C06B04900B98C0680390049904
:1046B00002F0F8FC05900B98406B0146049001E075
:1046C00029E023E1059802F0EDFC06900B98806943
:1046D00001460590069802F019FB0B9988610B982A
:1046E000C06B04900B9800690390049902F0DAFC07
:1046F00005900B98406B01460490059802F0D2FC9F
:1047000006900B98C06901460590069802F0FEFAE3
:104710000B99C861FBE00B98C06B03900B98806805
:104720000290039902F0BEFC04900B98406B014686
:104730000390049802F0B6FC05900B98006A0146BD
:104740000490059802F0AEFC06900B984069014673
:104750000590069802F0DAFA0B9948610B98C06B45
:1047600003900B98C0680290039902F09BFC0490A0
:104770000B98406B01460390049802F093FC05905F
:104780000B98406A01460490059802F08BFC069055
:104790000B98806901460590069802F0B7FA0B99CC
:1047A00088610B98C06B03900B9800690290039985
:1047B00002F078FC04900B98406B0146039004983B
:1047C00002F070FC05900B98806A014604900598F1
:1047D00002F068FC06900B98C069014605900698A7
:1047E00002F094FA0B99C86191E00B98406B014676
:1047F00002904FF0804002F055FC03900B98C06A85
:1048000001460290039802F055FD05900B98C06B8D
:1048100002900B9880680190029902F043FC03908B
:104820000B98406B01460290039802F03BFC049009
:10483000059902F037FC06900B98406901460590F7
:10484000069802F063FA0B9948610B98406B014699
:1048500002904FF0804002F025FC03900B98C06A54
:1048600001460290039802F025FD05900B98C06B5D
:1048700002900B98C0680190029902F013FC03901B
:104880000B98406B01460290039802F00BFC0490D9
:10489000059902F007FC06900B9880690146059087
:1048A000069802F033FA0B9988610B98406B014629
:1048B00002904FF0804002F0F5FB03900B98C06A25
:1048C00001460290039802F0F5FC05900B98C06B2E
:1048D00002900B9800690190029902F0E3FB0390AB
:1048E0000B98406B01460290039802F0DBFB0490AA
:1048F000059902F0D7FB06900B98C0690146059018
:10490000069802F003FA0B99C86100E000BF00BFEF
:104910000B98C06A06900B98406B0590069902F0C0
:10492000C9FC0B9908620B98416B41620B98C06AF5
:10493000014604904FF0804002F0B4FB05900B98C4
:10494000406B01460490059802F0A9FC06900B9874
:10495000006B01460590069802F0D8F90B99886221
:104960000B98C0690021049002F068FC02D20B98F9
:10497000C06903E00B98C06980F0004006900B9876
:1049800080690021029002F059FC02D20B988069E4
:1049900003E00B98806980F0004004900B98406918
:1049A0000021029002F04AFC02D20B98406903E019
:1049B0000B98406980F000400390049902F0A6F93A
:1049C0000590069902F0A2F90A900B9840690690AA
:1049D0000A9902F009FA09900B98806906900A99E1
:1049E00002F002FA08900B98C06906900A9902F04A
:1049F000FBF907900B98806A01460290079802F035
:104A000051FB04900B98406A01460090089802F010
:104A100049FB02900B98006A01460090099802F049
:104A200041FB0190029902F071F90390049902F0A0
:104A30006DF905900B98406801460490059802F0C6
:104A400031FB06900B98C06B01460590069802F06A
:104A50005DF90B99C8630B98C16A01630B98416BB0
:104A6000C1620B98C06B0DB000BD00000020014971
:104A700008757047EC040020042808D14FF0E021AD
:104A8000096941F004014FF0E022116107E04FF0A5
:104A9000E021096921F004014FF0E0221161704723
:104AA00070B586B001A8FFF76BFA4FF47A710298DF
:104AB000B0FBF1F4E4082146B1F1807F00D31DE0A2
:104AC00021F07F40401E4FF0E022506150170F222E
:104AD000002807DA13071E0E0B4B00F00F052D1FE1
:104AE0005E5503E013071D0E084B1D5400BF002048
:104AF0004FF0E02290610720106100BF6FF00400CA
:104B0000FFF7BAFF06B070BD18ED00E000E400E06A
:104B100010B504480068401C02490860FFF71CF902
:104B200010BD00006C04002010B51348006840F070
:104B300001001149086008464068104908400E49C4
:104B40004860084600680E4908400B49086008465E
:104B5000006820F4802008600846406820F4FE00C9
:104B600048604FF41F008860FFF7A6FC4FF000601C
:104B70000449086010BD0000001002400000FFF86A
:104B8000FFFFF6FE08ED00E010B588B004460121F5
:104B9000C802FFF7D5F903208DF81E0018208DF804
:104BA0001F004FF40070ADF81C0007A91948FEF76C
:104BB00085FE0920ADF81400ADF810400020ADF8D6
:104BC0001600ADF8120004A9134800F0ABFA7020EB
:104BD000ADF800000120ADF802000220ADF8080099
:104BE000C001ADF80C0069460B4800F08DF90821B2
:104BF000094800F0DBF90121074800F0EBF801213A
:104C0000054800F002F90121034800F0F2F808B06D
:104C100010BD000000080140002C014010B588B014
:104C2000044601210846FFF76BF901212D48FEF7E4
:104C3000D1FE03208DF81E0018208DF81F004FF4C0
:104C40000040ADF81C0007A92748FEF737FE40F6E4
:104C50000840ADF81C0007A92448FEF72FFE42F2D9
:104C60000F70ADF81400ADF810400020ADF816003C
:104C7000ADF8120004A94FF0804000F053FA702004
:104C8000ADF800000120ADF802000020ADF80800EA
:104C900069464FF0804000F0E1F80821C80600F0B6
:104CA00029F969464FF0804000F02EF90821C80626
:104CB00000F07CF969464FF0804000F085F908214A
:104CC000C80600F0D1F969464FF0804000F0D6F9EF
:104CD0000821C80600F010FA0121880700F089F8C1
:104CE00008B010BD0003180000080140000C01408E
:104CF00010B588B0044601210220FFF701F9012117
:104D00002748FEF767FE03208DF81E0018208DF857
:104D10001F004FF47070ADF81C0007A92148FEF782
:104D2000CDFD42F20F70ADF81400ADF81040002038
:104D3000ADF81600ADF8120004A91B4800F0F2F916
:104D40007020ADF800000120ADF802000020ADF8A1
:104D500008006946144800F081F80821124800F064
:104D6000C9F86946104800F0CFF808210E4800F055
:104D70001DF969460C4800F027F908210A4800F09F
:104D800073F96946084800F079F90821064800F0EF
:104D9000B3F90121044800F02CF808B010BD000060
:104DA000000C1A00001001400004004010B5012161
:104DB000064800F039F840B10121044800F016F827
:104DC00003480068401C0249086010BD0010004004
:104DD0004C00002021B1028842F08002028004E0F1
:104DE00002884FF67F731A4002807047CA430282DE
:104DF000704721B1028842F00102028004E002887B
:104E00004FF6FE731A400280704731B1B0F844206B
:104E100042F40042A0F8442005E0B0F84420C2F378
:104E20000E02A0F84420704730B50246002000234F
:104E30000024158A05EA0103958905EA010413B1E6
:104E40000CB1012000E0002030BD1AB183890B4372
:104E5000838102E083898B438381704770B500248E
:104E600000220023058C4FF6FE7635400584028C27
:104E70008388048B4FF68F752C40B51E2C400D880F
:104E80002C43751E2A400D892A434D882A43144D10
:104E9000A8420BD0134DA84208D0134DA84205D00C
:104EA000124DA84202D0124DA84213D14FF6F77509
:104EB0002A404D892A434FF6FB752A408D882A43A4
:104EC0004FF6FF652B404FF6FF552B408D892B4346
:104ED000CD892B4383800483CD888586028470BD71
:104EE000002C0140003401400040014000440140DA
:104EF000004801400A460021018B4FF6F773194024
:104F0000114301837047000070B500240022002384
:104F1000058C4FF6EF7635400584028C8388048B30
:104F200048F6FF752C404FF6FF452C400D884FF694
:104F3000FF7606EA05252C434FF6DF752A400D89DA
:104F400006EA05152A434D8806EA05152A43154D3C
:104F5000A84202D0144DA8421DD14FF67F752A40B9
:104F60004D894FF6FF7606EA05152A434FF6BF75C1
:104F70002A408D8806EA05152A434FF6FF352B4057
:104F80004FF2FF752B408D8906EA85052B43CD89AD
:104F900006EA85052B4383800483CD880587028438
:104FA00070BD0000002C0140003401400A46002181
:104FB000018B4FF2FF7319404FF6FF7303EA022390
:104FC000194301837047000070B5002400220023BC
:104FD000058C4FF6FF6635400584028C8388848BF0
:104FE0004FF68F752C404FF6FC752C400D882C43E6
:104FF0004FF6FF552A400D894FF6FF7606EA052544
:105000002A434D8806EA05252A43154DA84202D0B9
:10501000144DA8421DD14FF2FF752A404D894FF61D
:10502000FF7606EA05252A434FF6FF352A408D888C
:1050300006EA05252A434EF6FF752B404DF6FF750F
:105040002B408D8906EA05152B43CD8906EA051507
:105050002B4383808483CD888587028470BD0000C4
:10506000002C0140003401400A460021818B4FF69C
:10507000F7731940114381837047000070B5002217
:1050800000230024058C4EF6FF7635400584038C02
:105090008488828B48F6FF752A404FF6FF452A40E8
:1050A0000D884FF6FF7606EA05252A434DF6FF7573
:1050B0002B400D8906EA05352B434D8806EA053558
:1050C0002B430B4DA84202D00A4DA84208D14BF603
:1050D000FF752C408D894FF6FF7606EA85152C4327
:1050E00084808283CD88A0F84050038470BD000086
:1050F000002C0140003401400A460021818B4FF210
:10510000FF7319404FF6FF7303EA022319438183AB
:105110007047818670470187704781877047A0F884
:1051200040107047002202881D4B98420ED01D4B44
:1051300098420BD0B0F1804F08D01B4B984205D05D
:105140001A4B984202D01A4B984204D14FF68F73F3
:105150001A404B881A43174B984207D0164B984277
:1051600004D04FF6FF431A40CB881A4302808B8845
:1051700083850B8803850A4B98420BD0094B9842D4
:1051800008D00E4B984205D00D4B984202D00D4BE3
:10519000984201D10B7A0386012383827047000075
:1051A000002C014000340140000400400008004091
:1051B000000C00400010004000140040004001407E
:1051C000004401400048014010B50421154800F09A
:1051D00085F8012803D1134800F048F920E00221A6
:1051E000104800F07BF8012803D10E4800F03EF98A
:1051F00016E008210B4800F071F8012803D1094896
:1052000000F034F90CE040F22551064800F073F844
:1052100030B1044800F02AF9C4B2204600F0B4FFCF
:1052200010BD0000004C004010B50421214800F0E2
:1052300055F8012803D11F4800F018F938E0022181
:105240001C4800F04BF8012803D11A4800F00EF971
:105250002EE00821174800F041F8012803D1154835
:1052600000F004F924E040F22551124800F043F820
:10527000F0B1104800F0FAF8C4B20F480088B0F559
:10528000007F11DC0D480C49098844540A48008805
:10529000401C094908800846008840F201218842E4
:1052A00002D100200449088004490548FEF74EFF5A
:1052B00010BD0000004400405604002055020020AC
:1052C0009004002021B1828942F40052828104E0DE
:1052D00082894DF6FF731A40828170470246002092
:1052E000B1F5007F00D100BF13880B400BB1012046
:1052F00000E00020704770B502460024002300251E
:10530000002040F66A16B14200D100BFC1F3421539
:1053100001F01F03012606FA03F3012D02D196893D
:10532000334006E0022D02D1168A334001E0968A0E
:1053300033400C12012606FA04F41688344013B1E7
:105340000CB1012000E0002070BDF0B50346002440
:1053500000260025002040F66A17B94200D100BFA0
:105360001846C1F3421401F01F06012707FA06F59B
:10537000012C01D10C3004E0022C01D1103000E0EE
:1053800014301AB107682F43076002E00768AF4383
:105390000760F0BD2DE9F04786B005460E460024B3
:1053A000A24600BFA1460027B08900B100BF2F462A
:1053B0002C8A4CF6FF700440F08804432C82AC89A0
:1053C0004EF6F3100440B0883189084371890843D0
:1053D0000443AC81AC8A4FF6FF400440B0890443DB
:1053E000AC8201A8FEF7CCFD1F48874202D1DDF850
:1053F00010A001E0DDF80CA0A88900F4004040B145
:105400000AEBCA0000EB0A1031684900B0FBF1F862
:1054100007E00AEBCA0000EB0A1031688900B0FB14
:10542000F1F86420B8FBF0F004012009642101FBCD
:105430001089A88900F4004040B1322000EBC90077
:10544000B0FBF1F000F00700044308E0322000EB6D
:1054500009106421B0FBF1F000F00F0004432C812F
:1054600006B0BDE8F087000000380140014688889A
:10547000C0F30800704700BFFEE7490050EAC120B2
:1054800018BF04204A0D18BF40F0010040F2FF721F
:10549000B2EB515F08BF40F00200012808BF0520B1
:1054A000704740F2013200204FF0E04101F0B0BF00
:1054B000024A0020110701F0ABBF000001FDFFFF11
:1054C00010B50446D1E9000100F002F8206010BDDB
:1054D000F8B504460D466A4600F0D8F900987E30CB
:1054E000009000281EDC002213462046294601F0C9
:1054F000F3F817D0002140F608004FF000000646F0
:105500002046294600F0A2FE044640F6080006EABE
:1055100000014FF0000034F0004004BF0220FBF710
:10552000BEF829E00098FF2828DB002108464FF04C
:10553000000000F44006002213462046294601F0F0
:1055400099FA8CBF002501250220FBF7A8F84FF03F
:10555000FF4446B1002D0CBF4FF400004FF4800013
:10556000B04218BF084C042108464FF00000002D3F
:1055700004BF84F00040F8BD2046F8BD204629460F
:10558000BDE8F84000F062BEFFFF7F7F10B5044623
:105590000A46D4E90003194600F08AFAC4E900017A
:1055A00010BD30380A2801D2012070470020704712
:1055B00030B583B00446FBF76DF805460020CDE911
:1055C0000000024621466846FBF740FB2846FBF7F1
:1055D00066F8DDE9000103B030BD00001FB51148D9
:1055E00000681149096888421AD00F480068009085
:1055F0000020ADF804004FF40050ADF80600002084
:10560000ADF80800ADF80C000C20ADF80A006946B2
:105610000648FFF7BFFE044800680249086000BF63
:105620001FBD000068040020640400200044004006
:105630000BE000BF0749098801F040010029F9D0BB
:105640000178044A121D1180401C01780029F0D114
:1056500070470000004C004010B5044603E04FF4D2
:105660007A7000F005F8201EA4F10104F7D110BDF6
:1056700030B50446FEF7C2FA054600BFFEF7BEFA93
:10568000401BA042FAD330BD00B58BB001214804C5
:10569000FEF736FC01211020FEF732FC01210846FE
:1056A000FEF74EFC0220ADF8280010208DF82B00EC
:1056B00003208DF82A000AA96748FEF7FFF80420A6
:1056C000ADF8280003208DF82A0018208DF82B0053
:1056D0000AA96148FEF7F2F80820ADF82800482032
:1056E0008DF82B000AA95C48FEF7E8F8032100209A
:1056F000FEF7C4F80820039000208DF81000102059
:105700008DF8110001208DF8120003A8FEF76CF847
:1057100009208DF8140001208DF8150000208DF867
:10572000160001208DF8170005A8FEF775FB4FF64F
:10573000FF70ADF804004720ADF800000020ADF880
:105740000600ADF8020069464448FFF7EBFC012271
:1057500011464248FFF779FB36208DF814000120EE
:105760008DF8150003208DF8160001208DF8170024
:1057700005A8FEF751FB01213848FFF73AFB01214C
:105780004804FEF7CDFB00214FF40030FEF7C8FBC4
:10579000334806900020ADF81C004FF40050ADF8DF
:1057A0001E000020ADF82000ADF824000C20ADF85C
:1057B000220006A92B48FFF7EDFD26208DF81400E6
:1057C00000208DF8150003208DF8160001208DF8BB
:1057D000170005A8FEF720FB012240F225512148C1
:1057E000FFF7B3FD01211F48FFF76CFD1D48143082
:1057F000008840F080001B49143108801948001DC2
:10580000194908601948006817498839C1F88C009F
:105810009020154908390860002013498839C1F8DB
:1058200084000846D0F8800040F00200C1F88000F3
:1058300011208DF8140003208DF8150002208DF83A
:10584000160001208DF8170005A8FEF7E5FA0020E4
:10585000074908600BB000BD00080140001000407F
:1058600090D003000044004088000240480000201F
:105870008401214210B51120FFF786F90821024862
:10588000FFF749FC10BD0000002C014010B5144684
:1058900000222260114A21F000439342A8BF10BDAC
:1058A00053EA000208BF10BDB3F5801FA8BF2268ED
:1058B00007DA362201F0ACFD6FF0350221F000432B
:1058C0002260DFF81CC06FF31E510CEB23531A4407
:1058D00041F0FF5141F00051226010BD0000F07F07
:1058E00002FCFFFF2DE9FC5F4FF00009674880795B
:1058F00010B90020BDE8FC9F6448007D20BB6448CF
:10590000007802281ED10120624908606048407872
:105910005E4908750220FEF747FA08B10120E9E761
:105920006420FFF799FE02205B4909680870574818
:10593000007D1130584909684870022156480068B6
:10594000FEF78CFB0020D5E75148007810B1012804
:105950007ED100E000BF4D48007D4D494518002430
:1059600004E0285D484400F0FF09641C102CF8DBBB
:10597000285D48457DD1002454E005EB4400407883
:1059800015F8141040EA012641480078A0BB3046C3
:1059900001F040FB83463D48243050F8241058461F
:1059A00001F080FB824601F085F900223B4BCDE9F6
:1059B000000100F039FD074600F048FC384941F885
:1059C00024000A4652F82410E0B2FEF715FD344ACE
:1059D00052F82410334A52F8240001F0C7FA04D0D8
:1059E00031480088401C304908802D4850F8240078
:1059F0002C4941F8240014E0FFE742F2107106FB45
:105A000001F000F0D2FE82460022244B00F00CFD93
:105A1000074600F09DFE80B20190E0B20199FEF7CA
:105A200035FD641C052CA8DB05EB4400407815F817
:105A3000141040EA012642F2107106FB01F000F05A
:105A4000B4FE82460022154B00F0EEFC074601E052
:105A500015E00EE000F07CFE86B22EB142F210712D
:105A6000072000F009FA09E00021072000F004FAFD
:105A700004E00E480078401C0C49087000E000BFAC
:105A800000BF00200149887100BF33E7EC0400200B
:105A9000540000209C812142480000200000F0407A
:105AA0000029002014290020AA040020AC040020B2
:105AB0002DE9F04106460C4640F2FF75174635EADF
:105AC00014502BD000221346304600F005FE25D09E
:105AD0003A463046214601F09BFC06460C4635EA24
